:020000040800F2
:100000003808002035020008F3340008A32F000848
:10001000F1340008971B00080D38000800000000AC
:10002000000000000000000000000000D1350008C2
:10003000171C000800000000F5340008D335000844
:100040004F0200084F0200084F0200084F0200084C
:100050004F0200084F0200084F0200084F0200083C
:100060004F0200084F0200084F0200084F0200082C
:100070004F0200084F0200084F0200084F0200081C
:100080004F0200084F0200084F0200084F0200080C
:100090004F0200084F0200084F0200084F020008FC
:1000A0004F0200084F0200084F0200084F020008EC
:1000B000293600084F0200084F0200084F020008CE
:1000C0004F0200084F0200084F0200084F020008CC
:1000D0004F0200084F0200084F0200084F020008BC
:1000E0004F0200084F0200084F02000800F002F81B
:1000F00000F090F80AA090E8000C82448344AAF132
:100100000107DA4501D100F085F8AFF2090EBAE82F
:100110000F0013F0010F18BFFB1A43F0010318473B
:10012000844A0000A44A0000103A24BF78C878C16D
:10013000FAD8520724BF30C830C144BF04680C60ED
:10014000704700000023002400250026103A28BF35
:1001500078C1FBD8520728BF30C148BF0B60704739
:100160006E2900F08381702900F0CC82662904F0AA
:100170008184652904F07E84672904F07B846129E9
:1001800004F07A8403681B0A28BF41F080016929C2
:1001900000F03081642900F02D81752900F02A815A
:1001A0006F2900F05782782900F09882E92900F041
:1001B000EF81E42900F0EC81F52900F0E981EF29D5
:1001C00000F05482F82900F097820368DB0928BF09
:1001D00041F08001632900F0A387732900F0A8870C
:1001E000E32900F0B387F32900F0B88700207047B7
:1001F0001FB501F005F804000020002104F024FCE4
:10020000401C60600020002104F008FCE0601FBD7D
:1002100010B510BD00F0C6FF1146FFF7E9FF04F06E
:100220002FFB01F0A3F803B4FFF7F2FF03BC01F0CA
:10023000E7F800000948804709480047FEE7FEE765
:10024000FEE7FEE7FEE7FEE7FEE7FEE7FEE7FEE786
:1002500004480549054A064B704700002736000848
:10026000ED00000838020020380800203804002083
:10027000380400201CB50C46064B7B4469460090B0
:10028000204600F00EF904460020694600F01CF9F3
:1002900020461CBD4B02000010B5431C02E010F8C4
:1002A000011B71B18107FAD14FF0013202C88C1ADB
:1002B0008C4314EAC211F9D0C01A0A0603D0C01E3A
:1002C00010BDC01A10BD0A0401D0801E10BD090265
:1002D000FCD0401E10BD4FF0000200B513469446FE
:1002E0009646203922BFA0E80C50A0E80C50B1F18E
:1002F0002001BFF4F7AF090728BFA0E80C5048BFA2
:100300000CC05DF804EB890028BF40F8042B08BF3F
:10031000704748BF20F8022B11F0804F18BF00F83B
:10032000012B704770477047704770B50446856968
:100330000068C10601D5302600E02026C00708D09D
:1003400070BDD4E9012130469047206A00F10100D8
:1003500020626D1EF5D570BD70B5044685690078C4
:10036000C00708D170BDD4E9012120209047206A40
:1003700000F1010020626D1EF5D570BD09684A05C7
:1003800001D540B27047C905FCD500B27047096875
:100390004A0501D5C0B27047C905FCD580B2704787
:1003A00070B50C460546012A05D02878800600D590
:1003B000EA69002302E0012305E05B1C934202D2BC
:1003C000E05C0028F9D1A869E618C01AA861286A7B
:1003D000184428622846FFF7A8FF04E0D5E9012168
:1003E00014F8010B9047B442F8D32846FFF7B4FF46
:1003F00070BD00002DE9F041064600241068752903
:10040000314616A511D0FFF7B9FF002803DAC0F175
:10041000000013A507E031688A0701D511A502E0A5
:10042000490704D510A5012401E0FFF7B0FF002122
:100430000A2306F1240707E0B0FBF3F203FB1200E6
:10044000303078541046491C0028F5D123462A46FE
:100450003046BDE8F04100F06CBA0000000000003A
:100460002D0000002B000000200000001168026831
:10047000006A530501D508700BE0D30501D508804B
:1004800007E0130603D5C217C1E9000201E05206D6
:10049000086001207047000001694A1C0261087869
:1004A000704700B58FB0CDE90131002105910549B4
:1004B0007944CDE903101146684600F02FF90FB0DA
:1004C00000BD0000E5FFFFFF0A6802F8010B0A60AB
:1004D000704700002DE9FF5F15468A460446DFF8A5
:1004E000AC80F8440027D8E900103E46CDE9001062
:1004F00011E03AF816106A4602A800F033FE411CDB
:1005000007D02178890603D5E269391891420ED8BF
:10051000074406F101062078800602D5E069B8425A
:1005200005DDAE42E5DB3AF816000028E1D1A0690E
:10053000C01BA0612046FFF7F8FED8E90010CDE906
:100540000010002016E03AF818106A4602A800F0E1
:1005500009FE8146401C0BD000250DF1080B05E07B
:10056000D4E901211BF8050090476D1C4D45F7D3D8
:1005700008F10100B0428046E5DB206A3844206281
:100580002046FFF7E9FEBDE8FF9F0000C2450000DE
:100590002DE9F0418046D21D22F007020025D2E964
:1005A0000002F52914A612D0002A06DA0023D0EBA7
:1005B000030063EB020211A608E0D8F800108B07D5
:1005C00001D50FA602E0490701D50EA60125114667
:1005D000002408F1240704E000F066F930323A55AF
:1005E000641C50EA0102F7D12B46324621464046B0
:1005F000BDE8F04100F09DB9000000002D000000B2
:100600002B0000002000000030B4002100F1240481
:100610000CE002F0070505F130054FEAD20242EA8C
:100620004372655401F101014FEAD30352EA030515
:10063000EFD10468002310A2250708D504F0200498
:100640000C4304D0C46901230CA2641EC46130BCF5
:1006500000F06FB910B5044621461068FFF797FE09
:1006600002462046BDE810400023CDE7D21D22F00F
:100670000701D1E90023C7E70000000030000000B7
:10068000F0B40D460188090502D5234C7C4402E0F4
:10069000214C7C440E34002100F124060BE002F0D2
:1006A0000F074FEA1212E75D42EA03724FEA131393
:1006B000775401F1010152EA0307F0D102780023D7
:1006C000120704D5702D06D009B111340223224639
:1006D000F0BC00F02EB910340123F8E770B50446E1
:1006E0000D4621461068FFF752FE02462946204675
:1006F000BDE870400023C3E7D21D22F00703D3E911
:100700000023BDE70368126843F020030360082359
:10071000C3610023B4E70000204400002DE9F05F2E
:10072000894604464FF0000ADFF878B1FB44C0F870
:1007300020A02046E1688847002875D0252806D0EB
:10074000D4E901219047206A401C2062F1E700268D
:100750005F462046E16888472028054608DB312DA2
:1007600006D207EB050010F8200C08B10643F0E7AD
:10077000B00701D526F00406C4F81CA00027C4F871
:1007800018A02A2D09D0284603F066F838B304EBE8
:100790008708303DC8F8185019E059F8041B204666
:1007A00004EB87029161E1688847012F054618D163
:1007B000E069002820DA26F020061DE0D8F81800AD
:1007C00000EB800005EB40003038C8F818002046E8
:1007D000E1688847054603F03FF80028EED1012F75
:1007E0000AD02E2D08D12046E16888477F1C054697
:1007F000022F46F02006C4DBA069002803DA40423D
:1008000046F00106A061F00701D026F010066C2D1D
:100810000BD0682D09D04C2D39D06A2D35D0742DD0
:1008200035D07A2D33D016E038E0E1682F462046E7
:100830008847B842054609D16C2F26D04FF4806016
:10084000E168064320468847054604E06C2F1AD02D
:100850004FF4807006430DB3A5F14100192802D86A
:10086000203546F400664A462946204626604E4614
:10087000FFF776FC80B101280BD0F61D26F00700AB
:1008800000F1080955E74020E4E78020D8E7002080
:10089000D6E706F104094CE7284651E7206ABDE88F
:1008A000F09F0000A843000030B5B0F10A024FEA03
:1008B000900E71F100034EEA817EB0EB0E0061EB09
:1008C00091014FEA101E4EEA017E10EB0E0041EB43
:1008D00011114FEA102E4EEA016E10EB0E0041EBA3
:1008E00011214FEA104E4EEA014E10EB0E0041EB83
:1008F0001141401841F100014FEAD00040EA417037
:100900004FEAD10110EB80054FEA810444EA90746C
:1009100044EB01046D1944EB0404521BA3414FF056
:10092000000348BF0A3200D530BD401C41F1000130
:1009300030BD2DE9F0470D4699469246044600F138
:1009400024080168880604D5E06921F010012160BF
:1009500000E00120A84202DDA0EB050700E000272F
:10096000A16907EB050202EB0900A1EB0000A06101
:100970002078C00602D42046FFF7D7FC002608E006
:10098000D4E901211AF806009047206A401C761C21
:1009900020624E45F4DB2078C0060AD52046FFF7DA
:1009A000C4FC06E0D4E9012130209047206A401CB5
:1009B0002062381EA7F10107F4DC07E0D4E9012129
:1009C00018F805009047206A401C2062281EA5F1F7
:1009D0000105F3DC2046FFF7BFFC2078000602D5B6
:1009E0000220BDE8F0870120FBE770472DE9FF4FAB
:1009F0000C461E464FF0FF378BB0D2E90001DDF800
:100A000060800A908A46C1F30A5505B93D46002127
:100A100008464FF00000BAF1000F00F4400005DA7C
:100A200000EB80004FF4400101EA50004FEA90597A
:100A3000B9F1010F00DDB9460A9850EA4A000ED01C
:100A400044F61050A5F2FF3545432F14B8F1000FBE
:100A50001ED07542291E1EDDC9F100021CE0B8F14E
:100A6000010F4FF0000001D0302103E0F24305E018
:100A70002154401CB042FBDB3046002200212154AF
:100A80000B99C1F80880C1E900200FB0BDE8F08FD4
:100A9000BD1B6D1CDEE74A4600DA694206A800F07D
:100AA000F3FB06AB07CB03AB07C350460A9900F034
:100AB000AEFC8DE80700A0F500501F3800900398A9
:100AC000002D09DD42F21F014A46084403A90390A4
:100AD000684600F00DFF08E0A0F500504A461F38B8
:100AE00003A90390684600F017FF8DE80700000493
:100AF000000C03D04FF0FF30410800E01046B8F181
:100B0000000F03D00022009215461FE0751E06D488
:100B1000FFF7CAFE02F1300262556D1EF8D5B346EA
:100B20000122084302D000227F1C04E020783028F4
:100B300001D100227F1E002A099787D01DE0112DC8
:100B400007DAFFF7B1FE303262556D1C50EA010240
:100B5000F5D108430FD10021681E05E0235C625CDB
:100B60006354491C2254401E8142F7DBAB46A81B4C
:100B7000401E099001E0009848B1002004F80B00E5
:100B80000B98099AC0F80880C0E9002B7DE7112670
:100B90004FF000085AE72DE9F04F88460446D21D71
:100BA00022F0070191B0D1E90001CDE90A0102F07C
:100BB0002EFE02460B98C00F01D02D2007E02068C2
:100BC000810701D52B2002E0202101EAC000032A81
:100BD000099001D0072A05DB03464146204600F074
:100BE00013FB0FE12078800601D5E06900E00620C4
:100BF000B8F1650F814606D0B8F1660F18D0B8F18C
:100C0000670F72D132E00020B9F1110F009001DBC3
:100C1000112301E009F101030AAA01A90CA8FFF7B9
:100C2000E5FEDDE90C70002609F10105834648E088
:100C300001204B4600904FF000470AAA01A90CA8DA
:100C4000FFF7D4FEDDE90DB00C995D46002618B91A
:100C500009F1010001EB0005B9EB050003D4C0F177
:100C6000FF3609F10105A5EB09002BE0B9F1010FF1
:100C700001DA4FF001090020B9F1110F0090484648
:100C800001DD112300E003460AAA01A90CA8FFF721
:100C9000ADFEDDE90C704D46002683462078000746
:100CA0000AD4AB4500DA5D4601A8012D04DD4119E7
:100CB00011F8011C302907D04F4502DA17F1040F53
:100CC00004DA0120824610E06D1EEEE7002F02DC00
:100CD000ED1B3E4403E0781CA84200DD0546A7EB6F
:100CE000060000F1010A4FF000472078000703D406
:100CF000AA4501DB4FF0FF3A0021B7F1004F0DF19B
:100D000043088DF8431023D002202B23002F01DA53
:100D10007F422D234FF00A0C011EA0F1010000DCE0
:100D20004FB197FBFCF10CFB11720F4602F1300240
:100D300008F8012DF0E7A8F10100037021880905EA
:100D400001D5452100E06521A0F1010800F8011C52
:100D500009980FA9A1EB080707F1070700B10120C7
:100D600000EB050101EBEA70A1693844A1EB00003A
:100D7000A0F10100A0612078C00602D42046FFF750
:100D8000D4FA099830B1D4E901219047206A00F1E2
:100D9000010020622078C00620D52046FFF7C5FA62
:100DA0001CE0002E04DBB34502DD01A8805D00E0FD
:100DB0003020D4E901219047206A761C401CBAF10A
:100DC000010A20620AD100F01BFAC0680168405C89
:100DD000D4E901219047206A401C2062281EA5F119
:100DE0000105DEDC07E0D4E9012118F8010B90478A
:100DF000206A401C2062381EA7F10107F3DC204660
:100E0000FFF7AAFA022011B040E600002DE9F04FEA
:100E100004460D46D21D22F0070089B0D0E90092A9
:100E200048461746394602F0F2FC0246F80F01D058
:100E30002D2307E02068810701D52B2302E0202124
:100E400001EAC0038DF82030D8B200B10120032A96
:100E5000824601D0072A04DB2946204600F0D4F957
:100E600041E12078800601D40D2500E0E569C7F353
:100E70000A560D2D4ADA00214FEA175B08464FF05B
:100E80000000002F00F4400007DA00EB800000EBC8
:100E9000D0714FF4400000EA61008115012901DDA5
:100EA0004FF0FF3100224FEA850CBCF1180F06D33A
:100EB0001346ACF118004FF08052C24003E04FF4EB
:100EC000801323FA0CF30CF10C0CBCF1200F04D3AB
:100ED000ACF1200C09FA0CF001E007FA0CF0002943
:100EE0004FF0004801DD18B910E00FD140450DD397
:100EF00019EB02095F4121B9404502D19F4329EA1C
:100F00000209BBEB175F01D006F10106208800053E
:100F100002D57C48784402E07A487844193808AA17
:100F2000302302F80A30037C0AF10101002E0AF195
:100F3000020A53546A4602DC4FF0300101E04FF0E0
:100F400031014FF001088DF8001002D0A6F2FF36F3
:100F500003E059EA470100D06B4E002D02DC2178F6
:100F6000090704D54FF002082E218DF80110C44660
:100F700000210BE0C7F303433F01C35C491C6D1E16
:100F800002F80830052908F1010801DA002DF1DC2A
:100F900000210CE000EB1973491C1B786D1E082919
:100FA00002F8083008F101084FEA091901DA002DAA
:100FB000F0DC2178890602D514E0A8F10108E045AB
:100FC00005DD02EB080111F8011C3029F5D0B8F15C
:100FD000000F07DD02EB080111F8011C2E2901D1D9
:100FE000A8F10108002D05DD3E2102F808106D1E54
:100FF00008F10108407C002E02F8080008F1010801
:1010000006DA2D2002F80800764208F1010804E013
:101010002B2002F8080008F101080A214FF47A7326
:101020009E420ADB96FBF3F000F1300703FB1066EB
:1010300002F8087008F1010801E0642E0BDB642758
:1010400096FBF7F000F1300307FB106602F808305A
:1010500008F1010801E00A2E07DB96FBF1F000F130
:10106000300002F8080008F1010896FBF1F001FBDE
:10107000106000F1300002F80800A16908F10108D1
:1010800008EB050202EB0A00A1EB0000A06120784A
:10109000C00602D42046FFF748F9216A08AE01EBEA
:1010A0000A00206204E0D4E9012116F8010B904700
:1010B000BAF1010AF7D22078C00602D52046FFF720
:1010C00034F96E4609E016F8010B3E280FD0D4E93A
:1010D00001219047206A401C2062B8F10108F2D239
:1010E0002046FFF739F909B00220BDE8F08F206AE9
:1010F0002844206203E0D4E90121302090476D1E8E
:10110000EBD3F8E7E43B000002FCFFFF10B54369B6
:1011100013B1AFF3008001E0FFF742F9012010BDE9
:10112000127800F124010A7000224A700122EDE7D2
:1011300011684FF0FF32E9E710B5436913B1AFF31F
:10114000008001E0FFF7C6F9012010BD128800F110
:10115000240182840022C2840122EDE711684FF04D
:10116000FF32E9E770B516460C46054600F040F838
:10117000036893F80101012806D0FF2C0FD8185DF1
:1011800068B101202C7070BDD3F8070132462146AA
:1011900003442846BDE8704003F2071318474FF098
:1011A000FF3070BD754600F0E7F8AE4605006946B1
:1011B000534620F00700854618B020B5FFF748F8E1
:1011C000BDE820404FF000064FF000074FF0000848
:1011D0004FF0000B21F00701AC46ACE8C009ACE8C9
:1011E000C009ACE8C009ACE8C0098D4670470000F2
:1011F00010B500F005F8001D10BD00BF4D3800000F
:1012000000487047F40100202DE9F0411F460446D4
:1012100003260168072A01F4006004DB08B116A563
:1012200005E016A503E008B115A500E015A521F01D
:1012300010002060A069C01EA0610FB1401EA06117
:101240002046FFF772F84FB1D4E9012138469047A4
:10125000206A401C2062C01C206206E0206AFAE777
:10126000D4E9012115F8010B9047761EF8D22046EB
:10127000FFF772F8BDE8F0814E414E006E616E00DE
:10128000494E4600696E66002DE9F04781461646D4
:101290008AB035487844D0E9002380680092CDE9CF
:1012A0000130314878440C38D0E9022300690392B8
:1012B0004FF03702CDE9043041F69B30014491FBF9
:1012C000F2F0A0F1800502FB10141B3C02D5644231
:1012D000012000E00020DFF890A080460027FA44BB
:1012E000AAF1C60A0DE0E00709D03246684607EBCE
:1012F00047010AEB810100F00FFB8DE80700641045
:101300007F1C002CEFD1184F7F44B43F17E0E80753
:1013100013D007EB04100DF1180A90E80E00AAE8AC
:101320000E00C068F04201D198190890324606A913
:1013300003A800F0F1FA03AB07C36D10641C002D85
:10134000E5D132466946B8F1000F03A802D000F09B
:10135000CFFA01E000F0E0FAC9E90001C9F808207D
:101360000AB0BDE8F0870000F43800000446AFF38F
:1013700000802046FEF757FF00487047D401002048
:101380004FF0013C50F8042B51F8043B9A4221D114
:10139000A2EB0C03934313EACC1317D150F8042BA0
:1013A00051F8043B9A4215D1A2EB0C03934313EA84
:1013B000CC130BD150F8042B51F8043B9A4209D1BD
:1013C000A2EB0C03934313EACC13DBD04FF00000E5
:1013D000704700BFD01A01BAB1FA81F101F01801CB
:1013E00022FA01F0CB40C1F12001DBB2C0B2C01A39
:1013F0002CFA01F3D11A914311EAC311E6D17047D7
:1014000001491820ABBEFEE72600020070475FEAE4
:10141000400C08BF91F0000F4FEA8C234FEAC12225
:1014200043EA51514FEA1C5018BF00F5F0404FEA13
:10143000300018BF41F000415FEA6C5C00F0298089
:10144000BCF1FF3F08BF40F080407047130C06BF5F
:1014500012044FF0100C4FF0000C130E04BF1202D8
:101460000CF1080C130F04BF12010CF1040C930FC4
:1014700004BF92000CF1020CD30F04BF52000CF118
:10148000010C11464FF00002A0F11F00A0EB0C0070
:10149000704711F0004F08BF704731F000413FF432
:1014A000D5AF0B0C06BF09044FF0100C4FF0000C29
:1014B0000B0E04BF09020CF1080C0B0F04BF09014D
:1014C0000CF1040C8B0F04BF89000CF1020CCB0F44
:1014D00004BF49000CF1010CCCF12003A0EB0C007F
:1014E00022FA03F302FA0CF241EA030100F10100CF
:1014F000704720F07F4C80EA030023F07F47ACEB7D
:10150000070303F57C5300F0004003F1FF032DE9CE
:1015100080494FEA154B09B44FEA144325EA0B4EB4
:1015200024EA03480FF2042606EB132749083E7805
:101530005FEA320203FB0667C7F5000707FB06F602
:101540004FEA54374FEAD64606F1020607FB066C0F
:10155000CCF1005C4FEA1C472CEA074C07FB06F471
:101560000CFB06F504EB15464FEA961634BF002037
:101570004FF000404FEAD13706FB07FC4FEA1C4C06
:101580000CFB0BF7D21B03FB0CF761EB07010CFB09
:101590000EF7B0EB074072EB17420CFB08F734BFB5
:1015A000A2EB0742B2EB074261EB17414FEA0C4452
:1015B0004FEA910706FB07FC4FEA1C4C0CFB0BF7AC
:1015C000B0EBC74072EB573203FB0CF734BFA2EB12
:1015D000C742B2EBC74261EB57310CFB0EF7B0EBE1
:1015E000C70072EB57720CFB08F734BFA2EBC702BF
:1015F000B2EBC70261EB5771039F4FEA816141EA89
:10160000921104EBCC044FEAD1374FEA826206FB19
:1016100007FC42EA90124FEA80604FEA1C4C0CFB38
:101620000BF7D21B03FB0CF761EB07010CFB0EF76A
:10163000B0EB074072EB17420CFB08F734BFA2EB8C
:101640000742B2EB074261EB17414FEA8C554FEA74
:10165000910704EB9C2406FB07FC4FEA1C4C0CFB97
:101660000BF7B0EBC74072EB573203FB0CF734BFFC
:10167000A2EBC742B2EBC74261EB57310CFB0EF74E
:10168000B0EBC70072EB57720CFB08F734BFA2EB4C
:10169000C702B2EBC70261EB577115EB4C254FEA5D
:1016A000816141EA92114FEA82624FEAD13742EA00
:1016B000901206FB07FC44F100044FEA80604FEAF9
:1016C0001C4C0CFB0BF7D21B03FB0CF761EB070167
:1016D0000CFB0EF7B0EB074072EB17420CFB08F760
:1016E00034BFA2EB0742B2EB074261EB174115EBA7
:1016F0001C154FEA813141EA92414FEA823242EAB7
:1017000090424FEA80304FEA0C7644F1000448EAF8
:1017100003434EEA0B484FF0000EB2EB080C71EB9E
:10172000030724BF624639464EEB0E0E4FF0000B06
:101730000018524149414BEB0B0BB2EB080C71EB1B
:1017400003077BF1000B24BF624639464EEB0E0EB9
:101750004FF0000B0018524149414BEB0B0BB2EB21
:10176000080C71EB03077BF1000B24BF624639467E
:101770004EEB0E0E51EA020718BF46F0010616EBBB
:101780000E7655F1000254F1000103D5BDE8890140
:10179000BDE80088BDE88901BDE80048B61952419E
:1017A00041EB0101A3F10103704780807F7E7D7CC6
:1017B0007B7A7978777676757473727171706F6EE3
:1017C0006E6D6C6C6B6A6A6968686766666564648E
:1017D000636362616160605F5F5E5E5D5D5C5C5B18
:1017E0005B5A5A5959585857575656555555545487
:1017F000535352525251515050504F4F4F4E4E4DE5
:101800004D4D4C4C4C4B4B4B4A4A4A494949484830
:101810004847474747464646454545444444444370
:1018200043434342424242414141002B26D4770088
:1018300021D01CB54FEA370703B44FF010004FF02A
:1018400010014FF000000FBCBDE810400BF1010B80
:10185000BBF1010F08BF5FEA170722BF12F10102B7
:1018600011F101014FF0004143F1000300F000408D
:1018700043EA00007047F9D35708DAE746EA06461C
:1018800013F1400F4FEA16461FDD13F1200FDFBFA3
:1018900016430A46002120335B42C8D0C3F120071B
:1018A00046EA064602FA07F74FEA164646EA0706F0
:1018B000C3F1200722FA03F201FA07F721FA03F134
:1018C0004FF0000342EA0702B1E746EA020646EAA1
:1018D00006464FEA164646EA0106BCBF46EA0646F9
:1018E000360C4FF000034FF000024FF000019EE76E
:1018F0002DE9C048934630B491E8380007C831EA72
:10190000400C48BF34EA430C03D5FFF7F2FDFFF764
:101910008CFFF0BCBDE800882DE9C048934630B488
:1019200091E8380007C810F0804F08BF13F0804FCF
:1019300003D100F005F8FFF778FFF0BCBDE80088A0
:1019400020F07F4780EA030023F07F4C07EB0C0375
:10195000A3F57C5300F00040A3F1FE0392F0000FCA
:1019600000F0B38095F0000F00F077802DE9014979
:101970004FEA11404FEA144621EA004800FB06FCFA
:1019800024EA064708FB06F607FB08F800FB07F702
:1019900018EB06484CEB164C4FEA124B18EB074875
:1019A0004FEA15464CEB174022EA0B4E0BFB06FCA8
:1019B00025EA06470EFB06F607FB0EFE0BFB07F7B4
:1019C0001EEB064E4CEB164C4FF000061EEB074E7E
:1019D0004CEB174B18EB0B0840F1000018EB0E0B0B
:1019E00058EB000840F100008F1A4FF000013CBF97
:1019F000C943661B14BFB5EB040C00213CBFC943AF
:101A0000F61B4FEA17444EEA8E0E27EA04454FEACA
:101A10001C4704FB07622CEA074C05FB07F70CFB8D
:101A200005F604FB0CFC16EB074642EB174216EBDF
:101A30000C4642EB1C421BEB060658EB02024141EE
:101A400046EA9E0601D5BDE80189B619524141EB2F
:101A50000101A3F10103BDE801894FEA14454FEAF2
:101A6000114724EA054621EA074C05FB07F406FB6B
:101A700007F70CFB06F105FB0CFC11EB074144EBEF
:101A800017444FEA124711EB0C4144EB1C4422EA85
:101A9000074C05FB07F206FB07F70CFB06F605FBF8
:101AA0000CFC16EB074642EB174216EB0C4642EBDA
:101AB0001C456A1854F1000148BF7047B6195241DD
:101AC00041EB0101A3F10103704795F0000F37D0FE
:101AD0004FEA11424FEA144721EA024624EA074C32
:101AE00002FB07F106FB07F70CFB06F402FB0CFCFC
:101AF00014EB074441EB17414FEA154714EB0C4434
:101B000041EB1C4125EA074C02FB07F506FB07F7F2
:101B10000CFB06F602FB0CFC16EB074645EB1745E3
:101B200016EB0C4645EB1C42121951F1000148BF5F
:101B30007047B619524141EB0101A3F1010370470F
:101B40004FEA14454FEA114724EA054621EA074CBB
:101B500005FB07F106FB07F70CFB06F24FF000064A
:101B600005FB0CFC12EB074241EB174112EB0C4258
:101B700051EB1C4148BF7047921841EB0101A3F1A2
:101B80000103704700F00F01000900EB800001EB3A
:101B90004000C0B27047FEE730B5054B0022851803
:101BA0009C5C521C2C710A2AF9DB016030BD0000DC
:101BB0002C0000200A0ACBB20321AFF300802DE9EC
:101BC000F04104461D4616460F46642000F02EF8EC
:101BD000E7716672231D0022A57201201D5C401C66
:101BE0002A4492B20728F9DB5042020AE2722073BB
:101BF0000A22211D2068BDE8F0414FF47A7301F0FC
:101C000083B90A0ACBB20621FFF7D9BF00231A46CF
:101C10001621FFF7D4BF70470A22B0FBF2F102FB96
:101C2000110040EA0110C0B27047000070B50446D0
:101C300000F000F90546601C02D004480078044416
:101C400000F0F8F8401BA042FAD370BD1C00002041
:101C50002DE9F84FDFF8B0910024A9F1040B2346D9
:101C60000F2709F1040AABF1040EC6E00125A540D7
:101C70002A40AA4276D1DFF894C14E68A6EB0C0840
:101C800066452BD00DDC032E34D005DC36B3012E97
:101C900019D0022E2FD11BE0112E16D0122E2AD1D0
:101CA00019E0B8F5881F19D006DCB8F5803F15D0CB
:101CB000B8F5801F1FD111E0B8F5001F0ED0B8F5A0
:101CC000041F18D10AE0CB6815E0CB681B1D12E099
:101CD000CB6808330FE0CB680C330CE08B682BB17A
:101CE000012B4FF0080303D0456104E0042302E018
:101CF000056100E00023FF2A01D8064601E000F15B
:101D000004064FEA840501D9A5F12005D6F8008024
:101D100007FA05FC28EA0C0803FA05F548EA050865
:101D2000C6F800804D68ED0066D5394DAE6946F0C5
:101D30000106AE61AD6924F0030605F001050095CA
:101D4000344D06EB050CDCF80850A607360F07FAF1
:101D500006F825EA0805DFF8C080404503D14FF0BA
:101D6000000817E048E0DFF8B480404502D14FF0AA
:101D700001080FE0DFF8A880404502D14FF00208CB
:101D800008E0DFF8A080404502D14FF0030801E0F1
:101D90004FF0040808FA06F848EA0508CCF808806D
:101DA0004D68D9F80060ED02002D4D4601DA16436A
:101DB00000E096432E604D68DAF80060AD02002D19
:101DC000554601DA164300E096432E604D68DBF875
:101DD0000060AD03002D5D4601DA164300E0964336
:101DE0002E604D68DEF80060ED03002D754601DAC7
:101DF000164300E096432E60641C0A6832FA04F52C
:101E00007FF434AFBDE8F88F0804014000001110E2
:101E1000001002400000014000080140000C014099
:101E200000100140001401408068084000D00120EB
:101E30007047000001488068704700001C000020C7
:101E400070B5040025D094F83D00002520B984F831
:101E50003C50204600F07CFA242084F83D002068A5
:101E6000016821F0010101602068016841F400412E
:101E700001602068016821F40041016000F0C8FBA6
:101E80004A4A6168914201D8494900E0494988427B
:101E900001D2012070BD48492368B0FBF1F15E68B2
:101EA00026F03F060E435E606368934206D94FF406
:101EB000967359434FF47A73B1FBF3F12368491CCD
:101EC0001E6A26F03F0631431962616891420AD8C2
:101ED0004900401EB0FBF1F0401CC0F30B00042889
:101EE0001ED204201CE0A368F3B301EBC10202EB95
:101EF0000116421EB2FBF6F2521C42F48042120559
:101F000049D093B301EBC10202EB0111401EB0FBBB
:101F1000F1F0401CC0F30B0040F4804040F400405E
:101F20002168CA694CF6FF739A431043C861D4E92B
:101F3000071001432068026822F0C00211430160CB
:101F4000D4E9030101432068826848F2FF339A43D1
:101F500011438160D4E9050108432168CA6822F071
:101F6000FF021043C86001E00EE016E0206801683F
:101F700041F0010101602564202084F83D002563C3
:101F800084F83E50002070BD01EB4106421EB2FBBA
:101F9000F6F2521CB3E70120C2E701EB4101401EFB
:101FA000B0FBF1F0401CC0F30B00B7E7A0860100C6
:101FB00080841E0000093D0040420F002DE9F84FCB
:101FC0000025DDF82890984617468A460446009575
:101FD000FFF730FF064694F83D0020287BD11923F7
:101FE00001228A492046009601F0E4F80028F5D144
:101FF00094F83C0001286ED0012084F83C00206851
:102000000168C90703D1016841F00101016020683E
:10201000016821F400610160222084F83D00102055
:1020200084F83E0025646762A4F82A80608D2085CC
:102030007748E06233464A465146204600F0CAFFE0
:1020400000287DD1208DDFF8CC81202768B10128C0
:1020500014D00228206801681ED041F4806101601C
:102060002068416980690090C4E020684169816905
:102070000091016841F400710160BBE020680168D3
:1020800021F48061016072B6206841698169009124
:10209000016841F400710AE041F40061016072B628
:1020A0002068416981690091016821F480610160C3
:1020B00062B69FE003286AD801280DD002284B465B
:1020C0004FF000024146204600960CD001F072F815
:1020D000002862D10CE096E032464946204601F0E5
:1020E0000FF968BB79E001F065F848BB72B637E0DC
:1020F0002068016821F48061016072B6206800697F
:10210000616A0870606A00F101006062208DA0F1D0
:1021100001002085608DA0F1010060853E4846F2F7
:10212000A8110068B0FBF1F0C0EBC00000EB80002C
:102130000090401E009008D020684069C04300E035
:102140002BE040070CD50098F3E744F8305F677345
:10215000A573206940F02000206162B625731CE061
:102160002068016841F40071016020680069616ABB
:102170000870606A401C6062218D491E2185618D56
:10218000491E618562B621680969017029E03246FD
:102190004946204601F0B4F810B10120BDE8F88F9F
:1021A00020680069616A0870606A00F1010060627D
:1021B000208DA0F1010081B22185608DA0F1010088
:1021C0006085206842696FEA0202520712D403292F
:1021D00003D1016821F48061016020680069616AAF
:1021E0000870606A401C6062208D401E2085608DF2
:1021F000401E6085208D00287FF45CAF3C34677002
:10220000A5702570CAE70220C8E700000200100090
:102210000000FFFF04000100280000202DE9F84F16
:102220001F4690468A460446DDF82890FFF702FED6
:10223000054694F83D0020287ED119230122424909
:102240002046009500F0B6FF00287AD194F83C00B3
:10225000012876D0012084F83C0020680168C90775
:1022600003D1016841F0010101602068016821F497
:1022700000610160212084F83D00102084F83E00B8
:1022800000262664C4F824806785608D20852F4849
:10229000E0622B464A465146204600F011FF90B9B5
:1022A00020684169806900903AE02A464946204604
:1022B00001F05DF850B1206C042804D12068016859
:1022C00041F4007101600120BDE8F88F606A216867
:1022D00000780861606A00F101006062618DA1F11F
:1022E00001016185218DA1F1010189B22185226859
:1022F00053696FEA03035B070BD451B10078106197
:10230000606A401C6062608D401E6085208D401EAA
:1023100020852A464946204600F020FF0028CAD1E1
:10232000208D0028C1D154F81F0B016841F40071C1
:1023300001602020A07700E003E0E67766770020C8
:10234000C2E70220C0E70000020010000000FFFF0B
:1023500010B586B0002100910191029103910068AF
:102360000F4988421AD10F4CA06940F00800A061C3
:10237000A069694600F008000490C0200090122077
:102380000190032003900848FFF762FCE06940F4E5
:102390000010E061E06900F40010049006B010BD88
:1023A0000054004000100240000C014002488168C7
:1023B00002781144816070471C000020074810B566
:1023C000016841F010010160032000F079F800205D
:1023D00000F006F800F024F8002010BD00200240B4
:1023E00070B50D4D04464FF47A712878B1FBF0F0CA
:1023F0000A490968B1FBF0F000F0E4FA48B9102C82
:1024000007D200222146501E00F03AF800206C60EE
:1024100070BD012070BD00001C00002028000020BD
:102420000E4808B5816941F001018161816901F0BF
:1024300001010091C16941F08051C161C06900F0A2
:1024400080500090042000F03BF80548416821F0DE
:10245000E06141F00071416008BD000000100240E1
:102460000000014000280ADB00F01F02012191401A
:1024700040094FF0E02202EB8000C0F800117047E5
:10248000F0B40E4B1B680C46C3F30223C3F10705DF
:10249000042D00D90425191D072901D2002300E0CD
:1024A000DB1E012606FA05F1491E214099409E4097
:1024B000761E16403143F0BC01F0BEB90CED00E0D1
:1024C000064900F0070208684FF6FF03184040EA8B
:1024D0000220034A10430860704700000CED00E042
:1024E0000000FA052DE9F0470F46050061D0434E84
:1024F000306800F00700B84209D2306820F00700C9
:1025000038433060306800F00700B84251D1286885
:102510003B4C810712D5400703D5606840F4E0606A
:1025200060602878000703D5606840F46050606000
:102530006068A96820F0F000084360602878C00750
:1025400028D06868012810D02168022810D0890797
:1025500000292EDA616821F0030101436160FFF771
:1025600069FC804641F288390DE021688903EFE774
:102570008901EDE7FFF75EFCA0EB0801494502D9B0
:102580000320BDE8F0876068696800F00C00B0EBDC
:10259000810FEFD1306800F00700B8420BD93068E6
:1025A00020F0070038433060306800F00700B84280
:1025B00001D00120E5E72878400705D56068E96883
:1025C00020F4E060084360602878000706D5606862
:1025D000296920F4605040EAC100606000F038F8DA
:1025E0006168084AC1F30311515CC840064908609C
:1025F00006480068FFF7F4FE0020C2E70020024012
:10260000001002408E4A0008280000202000002010
:102610000448054900684968044AC1F30221515C35
:10262000C840704728000020001002409E4A000861
:102630000448054900684968044AC1F3C221515C55
:10264000C840704728000020001002409E4A000841
:102650000E4A51680E4801F00C03042B11D0082BD0
:102660000FD10C48C1F38343C903C05C0AD551683C
:10267000084AC1F34041921E515C054A5043B0FBE9
:10268000F1F07047044948437047000000100240D1
:1026900000127A007E4A000800093D002DE9F84F3B
:1026A000040070D02078C24DC00749D06868C0F3DC
:1026B0008100012807D06868C0F38100022809D191
:1026C0006868C00306D52868800339D5606800288B
:1026D000E7D035E06068B0F5803F0BD010B1B0F5C1
:1026E000A02F11D0286820F480302860286820F4BA
:1026F000802002E0286840F480302860606890B153
:10270000FFF798FB06460AE0286840F4802028601E
:10271000F0E700BFFFF78EFB801B642874D82868A1
:102720008003F7D50CE0FFF785FB064605E000BF08
:10273000FFF780FB801B6428F0D828688003F7D45B
:1027400020789C4E80074FF001094FF0000839D5E2
:10275000686810F00C0F07D06868C0F38100022889
:1027600009D16868C00306D42868800714D5206999
:10277000012808D110E02069B0B1C6F80090FFF739
:1027800059FB074605E00EE1FFF754FBC01B02288A
:10279000C4D828688007F7D52868616920F0F80058
:1027A00040EAC10028600DE0C6F80080FFF742FB58
:1027B000074604E0FFF73EFBC01B0228AED828689E
:1027C0008007F7D4207800072ED57B48A169E1B1B6
:1027D000C0F80090FFF72EFB074604E0FFF72AFB46
:1027E000C01B022810D8686A8007F7D573484FF4D9
:1027F000FA510068B0FBF1F0009000BF0098411E54
:1028000000910028F9D10FE082E0C0F80080FFF7C6
:1028100011FB074605E000BFFFF70CFBC01B0228B9
:1028200076D8686A8007F7D42078400761D5E869D0
:102830000027C00008D4E86940F08050E861E869EA
:10284000012700F0805000905D480168C90513D44D
:102850000168834641F480710160FFF7EBFA82461C
:1028600006E000BFFFF7E6FAA0EB0A0064284FD8A5
:10287000DBF80000C005F5D5E06801280AD008B1F2
:10288000052813D0286A20F001002862286A20F069
:10289000040002E0286A40F001002862E06841F28A
:1028A000883B98B1FFF7C6FA82460BE0286A40F0F1
:1028B00004002862EEE700BFFFF7BCFAA0EB0A01B4
:1028C00059455CD8286A8007F6D50CE0FFF7B2FAC4
:1028D000824605E0FFF7AEFAA0EB0A0159454ED853
:1028E000286A8007F6D4012F03D1E86920F08050D0
:1028F000E861E06990B36968C1F38101022945D0BC
:102900000228C6F8608004D0FFF794FA044639E044
:1029100035E0FFF78FFA074605E000BFFFF78AFAB8
:10292000C01B02282BD828688001F7D4206AB0F594
:10293000803F05D16868A16820F4003008436860D2
:10294000D4E908010843696821F4741108436860F8
:10295000C6F86090FFF76EFA044606E025E000BF77
:10296000FFF768FA001B022809D828688001F7D50C
:102970001BE000BFFFF75EFA001B022802D903200C
:10298000BDE8F88F28688001F4D40EE00128F7D064
:102990006868226A00F48031914204D1616A00F4CF
:1029A0007010884201D00120EAE70020E8E700002B
:1029B00000100240000042428004424228000020F1
:1029C0000070004010B5401EB0F1807F01D301209F
:1029D00010BD4FF0E02460610F21601700F02CFF64
:1029E0000020A06107202061002010BD70477047C3
:1029F00070B590F83C20012A25D0012480F83C4095
:102A0000022280F83D2003685A689D6822F0700613
:102A10000A6832435A600D4B02689A4208D0B2F1FC
:102A2000804F05D00A4B9A4202D00A4B9A4204D1F9
:102A3000496825F08003194391603C3044700021BF
:102A40000170084670BD022070BD0000002C0140DE
:102A5000000400400008004010B5040003D094F8C2
:102A60003D0010B107E0012010BD002084F83C00BB
:102A7000204600F015F8022084F83D00211D206852
:102A800000F0D8FD01203D3460726070A070E070ED
:102A900020716071A071E07120722070002010BD63
:102AA00008B5114A01681148914208D1816941F481
:102AB00000618161806900F40060009008BDB1F19F
:102AC000804FFBD1C16941F00101C161C0690022A1
:102AD00000F00100009011461C20FFF7D1FCBDE87A
:102AE00008401C20FFF7BEBC002C01400010024033
:102AF00090F83D10012901D001207047022180F893
:102B00003D1000680B49884208D0B0F1804F05D0D5
:102B10000949884202D00949884204D1816801F0FC
:102B20000701062903D0016841F00101016000207E
:102B300070470000002C01400004004000080040E5
:102B400090F83D10012901D001207047022180F842
:102B50003D100168CA6842F00102CA6000680B4972
:102B6000884208D0B0F1804F05D00949884202D090
:102B70000849884204D1816801F00701062903D081
:102B8000016841F00101016000207047002C014004
:102B900000040040000800400168CA6822F00102F9
:102BA000CA6001680A6A41F211131A4207D10A6A1F
:102BB0009B101A4203D10A6822F001020A60012127
:102BC00080F83D100020704770B5044690F83C0036
:102BD0000025012817D0012684F83C60022084F8E3
:102BE0003D002068826822F0770222F47F428260F2
:102BF0000868502837D00DDC20284ED005DC88B37B
:102C0000102811D149E0022070BD302845D040285D
:102C10000AD13AE060282ED070280CD0B0F5805F41
:102C200003D0B0F5005F11D001253C346670002060
:102C30002070284670BD4A68083120680AC900F033
:102C40002FFD2068816841F0770109E04A6808316A
:102C500020680AC900F024FD2068816841F48041A1
:102C60008160E2E719E0CA684968206800F02AFD3F
:102C70005021206806E0CA684968206800F033FDEA
:102C80006021206800F016FDCFE7CA684968206817
:102C900000F018FD40212068F4E722680146104644
:102CA000F0E7704770B50446006801694FF0000511
:102CB000C943890715D4C168C943890711D4E91EDE
:102CC000016101202077206880698007204602D0BA
:102CD000FFF7E7FF04E000F098F8204600F096F8D0
:102CE000257720680169C943490717D4C168C943DA
:102CF000490713D46FF00401016102202077206896
:102D0000806910F4407F204602D0FFF7CAFF04E03C
:102D100000F07BF8204600F079F8257720680169FB
:102D2000C943090716D4C168C943090712D46FF013
:102D300008010161042020772068C06980072046CF
:102D400002D0FFF7AEFF04E000F05FF8204600F08D
:102D50005DF8257720680169C943C90617D4C168A1
:102D6000C943C90613D46FF0100101610820207710
:102D70002068C06910F4407F204602D0FFF791FF21
:102D800004E000F042F8204600F040F82577206883
:102D90000169C943C90708D1C168C943C90704D13A
:102DA000891E0161204600F033F820680169C9439B
:102DB000090609D4C168C943090605D46FF080012A
:102DC00001612046FFF712FE20680169C9434906E8
:102DD00009D4C168C943490605D46FF040010161B7
:102DE000204600F025F820680169C94389060BD404
:102DF000C168C943890607D46FF0200101612046EC
:102E0000BDE87040FFF7F3BD70BD7047704700002C
:102E100006484178491CC9B241703C2904D10021BF
:102E200041700178491C0170704700000C000020BF
:102E3000704770B5040004D094F84100002510B12B
:102E400006E0012070BD84F84050204600F024F8D0
:102E5000242084F841002068C16821F40051C16039
:102E6000204600F053FC2068016921F49041016183
:102E70002068416921F02A0141612068C16841F45C
:102E80000051C1606564202084F8410084F842004C
:102E90006563002070BD000030B585B0002400944B
:102EA00001940294039400681449884224D1144880
:102EB000816941F480418161816901F4804104911B
:102EC000816941F00401816180690E4D00F00400C8
:102ED00004904FF4007000900220019003200390B2
:102EE00069462846FEF7B4FE2815CDE90004694678
:102EF00028460294FEF7ACFE05B030BD0038014014
:102F000000100240000801402DE9F843044690F803
:102F100041001F4616460D46202802D00220BDE87B
:102F2000F8837DB176B100206064212084F84100EF
:102F3000FEF780FFA6848046E684A068B0F5805F37
:102F400002D003E00120EAE7206910B12E460025F7
:102F50000EE000260CE08021204600F01DFCA0B908
:102F6000AEB116F8010B21684860E08C401EE08489
:102F7000E08C43464FF0000200970028EBD14FF061
:102F80004001204600F008FC30B10320C7E735F8C7
:102F9000020BC0F30800E6E7202084F8410000207F
:102FA000BDE7FEE701684A69D24352050FD46FF4CA
:102FB00080624A61002140F8301F202242738173F1
:102FC000026942F00402026101730120704700208F
:102FD000704700002DE9F84F0446C06A1E4693462C
:102FE0000D4621680A6842F480620A60082807D00A
:102FF000012805D010F5803F02D0206B112804D1A4
:103000002068016841F4807101604FF001195B464E
:10301000002249462046009600F0CCF84FF4007894
:1030200040B120680068C00501D5C4F84080032085
:10303000BDE8F88F2069DFF884A0B0F5804F0FD08D
:103040000620216800EAD51747F0F00008613346F2
:103050005A460AF10601204600F0F4F858BB03E096
:10306000E8B240F001001CE02168E8B20861334694
:103070005A465146204600F0E5F8E0B9206841691B
:1030800081690091016841F4807101605B46002212
:1030900049462046009600F08DF80028C1D147F03F
:1030A000F1002168086133465A465146204600F037
:1030B000C9F80028BCD00120BAE7000002000100D6
:1030C000F8B50446C06A1E460D461746082807D0C4
:1030D000012805D010F5803F02D0206B122804D1C2
:1030E0002068016841F480710160134600224FF0AE
:1030F00001112046009600F05DF840B1206800689C
:10310000C00502D54FF4007020640320F8BD20698B
:10311000B0F5804F0ED00620216800EAD51040F0AF
:10312000F000086133463A460B49204600F08AF821
:1031300078B902E005F0FE0000E0E8B2216808611D
:10314000054933463A46891F204600F07BF800289F
:10315000DCD00120F8BD00000800010070B5164663
:103160000D4604461EE02046FFF71CFF08B1012073
:1031700070BD681C16D0FEF75DFE801BA84200D80B
:1031800085B920684069C04340070BD5002044F84A
:10319000300F20216173A073216941F0200121616A
:1031A0002073E4E720684069C0434007DBD4002077
:1031B00070BD00002DE9F047984617460D460446BD
:1031C000C1F30746DDF820902AE000BF18F10100A6
:1031D00026D0FEF72FFEA0EB0901414502D8B8F139
:1031E000000F1DD12068012E16D0806925EA00004D
:1031F0000004000C12D00020B84211D1002044F885
:10320000300F20216173A073216941F020012161F9
:1032100020730120BDE8F0874069E7E70120EBE774
:103220002068012E0AD0806925EA00000004000C05
:1032300006D00020B842C9D00020EBE74069F3E790
:103240000120F7E72DE9F047984616460D4604465B
:103250004FF000094FF0200AC1F3074723E0206830
:103260004069C043400515D42068016841F40071ED
:10327000016021686FF480604861C4F8309084F880
:103280003DA084F83E90216C41F00401216484F853
:103290003C9021E0701C06D0FEF7CCFDA0EB0800AE
:1032A000B04203D816B1012F1FD021E02068012FB2
:1032B00015D0806925EA00000004000C18D000BF7A
:1032C00044F8309F84F80DA084F80E90216941F0F5
:1032D0002001216184F80C900120BDE8F08740694D
:1032E00025EA00000004000CEAD12068406901E0F2
:1032F0002068806925EA00000004000CAFD1ECE7EB
:103300002DE9F041002590460E460446202727E08F
:103310004069C043C0060BD454F8201B6FF0100066
:10332000486125616777A577206A2062257714E0D8
:10333000FEF780FDA0EB0800B04200D886B92068F7
:103340004069C04340060BD544F8305F6773A573EE
:10335000206940F02000206125730120BDE8F08144
:1033600020684169C9434906D2D40020F6E770B508
:1033700016460D4604461EE02046FFF713FE08B130
:10338000012070BD681C16D0FEF754FD801BA842BA
:1033900000D885B920684069C04300060BD50020DD
:1033A00044F8300F20216173A073216941F020019E
:1033B00021612073E4E720684069C0430006DBD444
:1033C000002070BD00B585B0002001900390114829
:1033D000816941F020018161816901F0200104913E
:1033E000816941F004018161816901F00401049166
:1033F000816941F0080181618069694600F0080037
:10340000049038200090012002900348FEF720FC31
:1034100005B000BD001002400008014010B586B0A4
:1034200000241848009401940294039404941449CD
:103430000594016041F63F71C0E901144FF6FF7138
:10344000C0E9031444618461FFF706FB08B172B65A
:10345000FEE74FF48050009069460A48FFF7B4FB3E
:1034600008B172B6FEE7049404A906480594FFF774
:10347000BFFA002801D072B6FEE706B010BD00000A
:10348000002C01408C00002010B586B000241748A5
:10349000009401940294039404944FF080410594A5
:1034A000016041F63F71C0E90114C910C0E903147D
:1034B00080218161FFF7D0FA08B172B6FEE74FF4C0
:1034C0008050009069460948FFF77EFB08B172B64C
:1034D000FEE7049404A905480594FFF789FA00283B
:1034E00001D072B6FEE706B010BD0000D400002087
:1034F000FEE7FEE77047016070477FB50546002094
:1035000064260C468DF80C000096012303AAD021F6
:103510002868FEF783FE0096072301AAD0212868B9
:10352000FEF74CFD9DF80400FEF72CFB20709DF883
:103530000500FEF727FB60709DF80600FEF722FBF2
:10354000A0709DF80700FEF71DFBE0709DF80800D5
:10355000FEF718FB20719DF80900FEF713FB607160
:103560009DF80A00FEF70EFBA0717FBD3EB5044634
:1035700000208DF804000B460878FEF74DFB8DF80F
:1035800005005878FEF748FB8DF806009878FEF79E
:1035900043FB8DF80700D878FEF73EFB8DF8080056
:1035A0001879FEF739FB8DF809005879FEF734FBDE
:1035B0008DF80A009879FEF72FFB8DF80B00642038
:1035C0000090082301AAD0212068FEF727FE3EBD07
:1035D0007047FEF7EBBE10B590B028216846FCF7A7
:1035E0007AFE14210AA8FCF776FE02200090012042
:1035F000049010200024059007946846FFF74EF8C9
:1036000008B172B6FEE70F20CDE90A040C940D94C0
:1036100000210AA80E94FEF765FF002801D072B6BB
:10362000FEE710B010BD70470148FFF73BBB00003C
:10363000D4000020F0B50268164B174C174D4FF020
:103640008047984205D0B84203D0A04201D0A8429A
:1036500003D122F070064A683243984205D0B8423E
:1036600003D0A04201D0A84203D122F44074CA681A
:1036700022434C6922F08002224302608A68C262BF
:103680000A688262984201D109690163012141619E
:10369000F0BD0000002C0140000400400008004084
:1036A00010B5846842EA032224F47F440A4322438B
:1036B000826010BD826822F070020A4342F0070166
:1036C0008160704710B5036A046A24F00104046243
:1036D000846924F0F00444EA021423F00A020A4345
:1036E0008461026210BD10B5036A046A24F01004FC
:1036F0000462846923F0A00324F4704444EA023293
:1037000043EA01118261016210BD000010B5044658
:1037100000680169E26821F44051114301612169A7
:10372000A0680843616908432168CA6841F20C63D4
:103730009A430243CA6020684169A26921F440713A
:103740001143416113492068884202D1FEF770FF9E
:1037500001E0FEF75DFF00EBC00101EB00106168C6
:1037600064228900B0FBF1F1B1FBF2F06FF01803B5
:10377000434301EB8303322101EB0311B1FBF2F16F
:1037800001F0F00202EB001001F00F010844216883
:10379000886010BD003801402DE9F0419846174679
:1037A0000E460446069D25E0681C23D02DB1FEF789
:1037B00041FBA0EB0800A8421CD920680C3050E85F
:1037C000001F21F4D07140E80012002AF5D12068D2
:1037D000143050E8001F21F0010140E80012002AD7
:1037E000F5D1202040346070A070002020700320AC
:1037F000BDE8F0812068006836EA000004D00020AF
:10380000B842D1D00020F3E70120F9E7FEE74900F4
:1038100050EAC12018BF04204A0D18BF40F0010033
:1038200040F2FF72B2EB515F08BF40F00200012886
:1038300008BF0520704700000907090E002801DBBA
:10384000034A02E0034A00F00F0081547047000071
:1038500000E400E014ED00E030380A2801D2012035
:1038600070470020704700002DE9F05FF849DFF84D
:10387000E4A30327022600240125804688423ED186
:103880000A20FEF7D3F9F248243800F043FFAAF1EA
:103890000900017839B1012908D0032927D08146D0
:1038A000062926D029E00570847028E08178062951
:1038B00025D2DFE801F003050811151904701EE098
:1038C0000670C4701BE0077006718AF800408AF821
:1038D00001408AF8024012E004210170C4710EE038
:1038E0000521017005720AE00621017007E04471AC
:1038F000E4E7D7483030FEF789F989F80040D44929
:103900001839884514D10A20FEF790F9D048243898
:1039100000F000FFCF4809380178012914D18278DE
:10392000062A11D2DFE802F0030507090B0E8570A5
:10393000FAE08670F8E08770F6E0042100E00521E7
:103940008170F1E08470EFE04FF03C0B022975D1FB
:10395000C0480938C178BE48303806296ED2DFE841
:1039600001F003192F455B718146011DB8483038BD
:10397000FFF7C3FD99F808001F2808D01F22B0FBED
:10398000F2F302FB1300401C89F808006BE089F891
:10399000085068E08146011DAD483038FFF7ADFDA5
:1039A00099F809000C2808D00C22B0FBF2F302FBB6
:1039B0001300401C89F8090055E089F8095052E0CD
:1039C0008146011DA2483038FFF797FD99F80A009B
:1039D000632808D06422B0FBF2F302FB1300401C02
:1039E00089F80A003FE089F80A403CE08146011D61
:1039F00097483038FFF781FD99F80600172808D05E
:103A00001822B0FBF2F302FB1300401C89F80600F9
:103A100029E089F8064026E08146011D8C483038AF
:103A2000FFF76BFD99F805003B2808D0B0FBFBF3CE
:103A30000BFB1300401C89F8050014E019E089F81D
:103A4000054010E08146011D81483038FFF755FDE3
:103A500099F804003B2818D0B0FBFBF30BFB1300D4
:103A6000401C89F804007A4809F104013038FFF756
:103A70007DFD784809380178032909D004292CD024
:103A8000052933D006293FD04EE089F80440EAE703
:103A90000079B8B101280BD0022845D19AF802105C
:103AA000491CB1FBFBF30BFB13118AF802103BE03E
:103AB0009AF80110491CB1FBFBF30BFB13118AF8B8
:103AC000011031E09AF80010491C1822B1FBF2F302
:103AD00002FB13118AF8001026E0C17911B1012907
:103AE00022D101E0C5711FE0C4711DE0017A0129F6
:103AF00004D0022906D0032916D101E0077213E091
:103B0000067211E005720FE001691E2901DAC91C75
:103B10000161008A81B24E483030FEF772F84C489D
:103B200002213030FEF746F84949183188453CD12A
:103B30000A20FEF77BF84648243800F0EBFDDFF85A
:103B40001481A8F1090898F80600012807D1404817
:103B50003030FEF75BF888F8055088F8064098F892
:103B6000000088B998F8010040B101281DD13848FB
:103B7000243800F0C1FD88F8014005E034482438BD
:103B800000F0ACFD88F8015098F80010404601297B
:103B90001AD18278062A17D2DFE802F00305090C51
:103BA0000F1205210DE088F80240BDE8F09F88F86B
:103BB0000250FAE788F80260F7E788F80270F4E745
:103BC000042188F80210F0E7022919D1C278062AE8
:103BD00016D2DFE802F00306090C0E1288F8035033
:103BE000E3E788F80360E0E788F80370DDE7042185
:103BF00000E0052188F80310D7E788F80340D4E7F0
:103C0000032918D004292AD005292DD00629CCD182
:103C10000169002901DDC91E0161B8F8100081B2F7
:103C20000B483030FDF7EDFFBDE8F05F084802219A
:103C30003030FDF7BFBF017971B1012904D00229ED
:103C4000B3D188F80450B0E788F80440ADE700002D
:103C5000940100200900002088F80460A5E70A48C4
:103C6000047044708470A0E7017A012906D002290B
:103C700007D0032999D188F8085096E788F808609A
:103C800093E788F8087090E70C00002070477047B1
:103C9000704770B50446818A0069FEF7C5F8A178BF
:103CA0000126814204D0A070E670FEF7C3F8606080
:103CB000E078002540B1FEF7BDF86168401A0F2892
:103CC00002D3A0782070E57020786178884210D007
:103CD000F8B1FEF7AFF8A168401AB0F57A7F02D8C4
:103CE0002046FFF7C1FD2046FFF7D2FF257320785D
:103CF0006070207B00280BD0FEF79CF8A168401A6A
:103D000040F6B831884203D32046FFF7BFFF257342
:103D100070BD26732046FFF7BAFFFEF78BF8A06050
:103D2000E5E701618282704770B5104C0546211DA0
:103D30002046FFF7E2FBA0792978884214D1607908
:103D40006978884210D12079A97888420CD1084C32
:103D500001250648A571217A6030FDF72BFF034845
:103D6000D838FEF7C5FE657170BD00006401002003
:103D700000000020F8B5F94EF94D307808BB291D38
:103D80002846FFF7BAFB0422012105F10C0000F0E0
:103D90005FFD287900906B79AA79F2A105F10C00FA
:103DA00000F0F4FC0422002105F10C0000F050FDAD
:103DB000A87A00906B7A2A7AEEA105F10C0000F047
:103DC000E5FC307801287CD1B078062879D2DFE88C
:103DD00000F00316293C4F62E148022200210C301A
:103DE00000F036FDDE48E7A10C3000F0CFFCDC48E7
:103DF000022201210C3000F02BFDE6A15DE0D84845
:103E0000022200210C3000F023FDD548DDA10C304A
:103E100000F0BCFCD248022201210C3000F018FD59
:103E2000E0A14AE0CE48022200210C3000F010FD53
:103E3000CB48D4A10C3000F0A9FCC94803220121D1
:103E40000C3000F005FDDAA137E0C5480222002160
:103E50000C3000F0FDFCC248CAA10C3000F096FC0A
:103E6000BF48032201210C3000F0F2FCD3A124E072
:103E7000BB48022200210C3000F0EAFCB848C1A186
:103E80000C3000F083FCB648012211460C3000F0E3
:103E9000DFFCCDA111E0B248022200210C3000F07D
:103EA000D7FCAF48B7A10C3000F070FCAC48022240
:103EB00001210C3000F0CCFCC7A1A9480C3000F067
:103EC00065FC307842F21074022855D1F07806284B
:103ED00052D2DFE800F00352A1F3F1F0291DA0480F
:103EE000FFF70BFB9E48042201210C3000F0B0FCD0
:103EF000287900909A486B79AA799AA10C3000F041
:103F000045FC9748042200210C3000F0A1FCA87A5F
:103F1000009093486B7A2A7A96A10C3000F036FC18
:103F20000020401C80B2A042FBD3291D8C48FFF723
:103F3000E4FA8B48042201210C3000F089FC287936
:103F4000009087486B79AA7986A10C3000F01EFC9E
:103F50008348042200210C3000F07AFCA87A0090FB
:103F60007F486B7AA0A2A1A10C3000F00FFC0020CA
:103F7000401C80B2A042FBD3FDE1291D7848FFF729
:103F8000BCFA7748042201210C3000F061FC28794A
:103F9000009073486B79AA7972A10C3000F0F6FB9F
:103FA0006F48042200210C3000F052FCA87A0090E7
:103FB0006B486B7A2A7A6FA10C3000F0E7FB002087
:103FC000401C80B2A042FBD3291D6548FFF795FA3B
:103FD0006348042201210C3000F03AFC287900905B
:103FE0005F486B79AA795FA10C3000F0CFFB5C4889
:103FF000042200210C3000F02BFCA87A00905848D5
:104000002A7A79A37DA10C3000F0C0FB0020401C6F
:1040100080B2A042FBD3AEE1291D5148FFF76DFAF3
:104020004F48042201210C3000F012FC2879009046
:104030004B486B79AA794BA10C3000F0A7FB48489C
:10404000042200210C3000F003FCA87A00904448C0
:104050006B7A2A7A47A10C3000F098FB0020401CB4
:1040600080B2A042FBD3291D3D48FFF746FA3C48E9
:10407000042201210C3000F0EBFB28790090384835
:104080006B79AA7937A10C3000F080FB3448042208
:1040900000210C3000F0DCFB53A0009030486B7A1C
:1040A0002A7A5AA10C3000F071FB0020401C80B22B
:1040B000A042FBD35FE10CE1B8E0FFE7291D2848EF
:1040C000FFF71BFA2648042201210C3000F0C0FB48
:1040D0002879009022486B79AA7922A10C3000F04F
:1040E00055FB1F48042200210C3000F0B1FBA87AD8
:1040F00000901B486B7A2A7A1EA10C3000F046FB18
:104100000020401C80B2A042FBD3291D1448FFF7B9
:10411000F4F91348042201210C3000F099FB2879AE
:1041200000900F486B7930A23CA10C3000F02EFBC0
:104130000B48042200210C3000F08AFBA87A009082
:1041400007486B7A2A7A0BA10C3000F01FFB002085
:10415000401C80B2A042FBD30DE100000000002013
:1041600064010020253032643A253032643A25302B
:1041700032640000253032642D253032642D253024
:10418000326400002D456E746572204D6F64652D9C
:104190000000000054696D6520446973706C61799A
:1041A0000000000054696D652041646A75737400F5
:1041B00053657420416C61726D00000053706F7222
:1041C000742054696D65720043686F6F7365205287
:1041D000696E67746F6E6500566F6C756D65204112
:1041E000646A7573740000002020000025732D257B
:1041F0003032642D253032640000000025303264F6
:104200002D25732D253032640000000025303264E6
:104210002D253032642D25730000000025733A25CA
:104220003032643A2530326400000000291DFD4818
:10423000FFF763F9FB48042201210C3000F008FB72
:10424000287900906B79AA79AFF2E801F5480C3033
:1042500000F09CFAF348042200210C3000F0F8FA38
:10426000A87A00906B7A2A7AAFF2F801ED480C3008
:1042700000F08CFA0020401C80B2A042FBD3291D24
:10428000E848FFF73AF9E748042201210C3000F032
:10429000DFFA28790090AA79AFF2B403E148E2A1ED
:1042A0000C3000F073FADF48042200210C3000F0DB
:1042B000CFFAA87A00906B7A2A7AAFF24811D948DF
:1042C0000C3000F063FA0020401C80B2A042FBD307
:1042D00051E0291DD348FFF710F9D24804220121EB
:1042E0000C3000F0B5FA287900906B79AA79AFF21A
:1042F0008C11CC480C3000F049FACA480422002145
:104300000C3000F0A5FAA87A00906B7A2A7AAFF206
:104310009C11C4480C3000F039FA0020401C80B2D7
:10432000A042FBD3291DBF48FFF7E7F8BD48042290
:1043300001210C3000F08CFAAFF254100090B94813
:104340006B79AA79BCA10C3000F020FAB5480422A0
:1043500000210C3000F07CFAA87A00906B7A2A7A5F
:10436000AFF2F011AF480C3000F010FA0020401C02
:1043700080B2A042FBD3307803287DD13079B24D92
:1043800002283FD1A748042200210C3000F060FA37
:10439000A448AEA10C3000F0F9F9A2480422012192
:1043A0000C3000F055FAA87800906B782A78AFF2BC
:1043B0004C219C480C3000F0E9F90020401C80B2F0
:1043C000A042FBD39748042200210C3000F040FAB1
:1043D00094489EA10C3000F0D9F9924804220121A2
:1043E0000C3000F035FAAFF2002000908D486B7869
:1043F0002A7891A10C3000F0C9F90020401C80B24D
:10440000A042FBD33079012841D186480422002103
:104410000C3000F01DFA83488CA10C3000F0B6F986
:104420008048042201210C3000F012FAA878009094
:104430006B782A78AFF2D4217A480C3000F0A6F9D4
:104440000020401C80B2A042FBD376480422002109
:104450000C3000F0FDF973487CA10C3000F096F9A7
:104460007048042201210C3000F0F2F9A878009085
:104470002A78AFF28C2300E04AE06A486AA10C3047
:1044800000F084F90020401C80B2A042FBD33079B8
:10449000F0BB6448042200210C3000F0D9F96148D7
:1044A0006AA10C3000F072F95E48042201210C3040
:1044B00000F0CEF9A87800906B782A78AFF25C31E2
:1044C00058480C3000F062F90020401C80B2A04235
:1044D000FBD35448042200210C3000F0B9F95148B4
:1044E0005AA10C3000F052F94E48042201210C3040
:1044F00000F0AEF9A87800906B78AFF21432AFF20A
:10450000E42148480C3000F041F90020401C00E054
:1045100002E080B2A042F9D3307804281CD141488F
:10452000042200210C3000F093F93E484AA10C30DF
:1045300000F02CF93B48042201210C3000F088F9EE
:104540004148C01C8178009143780278AFF2EC3189
:1045500034480C3000F01AF9307805281CD1307A34
:1045600001283BD002284CD003285AD12D480022E4
:1045700011460C3000F06CF92A483AA10C3000F0DA
:1045800005F92848002201210C3000F061F939A119
:1045900024480C3000F0FAF830780628E5D121489C
:1045A000022200210C3000F053F91E4834A10C30D7
:1045B00000F0ECF81B48022201210C3000F048F911
:1045C0003069032100EB8000400090FBF1F2BDE870
:1045D000F84014482DA10C3000F0D8B81148002242
:1045E00011460C3000F034F90E482BA10C3000F0CD
:1045F000CDF80C48002201210C3000F029F92AA145
:10460000C6E70848002211460C3000F021F90548A1
:1046100028A10C3000F0BAF80248002201210C3029
:1046200050E053E064010020253032643A25733AAB
:104630002530326400000000253032643A253032E3
:10464000643A2573000000000900002053455441DE
:104650004C41524D000000002054494D455220204D
:104660000000000043484F4F534520534F4E472012
:10467000333A0000534F4E472047494F0000000097
:1046800053455420564F4C554D453A00566F6C7566
:104690006D653A202564000043484F4F5345205331
:1046A0004F4E4720313A0000424143205048414E8E
:1046B0000000000043484F4F534520534F4E4720C2
:1046C000323A000000F0C4F801A161E7F8BD000033
:1046D000484F4E47204E48414E00000038B500215B
:1046E0004172642100914468017800F109020123BC
:1046F0002046FDF793FD38BD38B50821417264218D
:1047000000914468017800F1090201232046FDF779
:1047100085FD38BD10B5012100F055F8BDE8104009
:104720000120FDF783BA10B50446416050002070A7
:10473000207A332140F004002072204600F043F834
:104740003221204600F03FF80520FDF76FFA0121E5
:10475000204600F038F80520FDF768FA0C212046C5
:1047600000F031F80520FDF761FA0221204600F043
:104770002AF80520FDF75AFA8021204600F023F898
:10478000204600F075F80820607210BD0FB470B5B7
:1047900086B005460CAA68460B99FBF76BFD002412
:1047A0006E4605E0315D284600F02DF8641CE4B249
:1047B0006846FBF771FDA04201D9102CF2D306B078
:1047C00070BC5DF814FB1CB501F0F002437A42F0B6
:1047D00004041C438DF8044013438DF8053009018F
:1047E000427A41F004031A438DF80620427A0423EA
:1047F0000A438DF80720642100910178406801AADE
:10480000FDF70CFD1CBD1CB501F0F002437A42F02F
:1048100005041C4342F001028DF8044013438DF857
:1048200005300901427A41F005031A438DF806204C
:10483000427A41F001010A438DF80720642100917A
:1048400001784068042301AAFDF7E8FC1CBD0000C4
:1048500008B506A31B6800931DF801101144C9B2E6
:1048600041F08001FFF7AFFF08BD00000040145485
:10487000017A21F00101017241F00801FFF7A3BFA5
:10488000FDF79CFDFEF7A7FEFEF79CFDFEF7FCFD85
:104890004E484D49002501604D49C0E901154FF4CE
:1048A0008041C0E9035145618561C5610562FDF73D
:1048B000C7FA08B172B6FEE744484649E4300160E1
:1048C0004FF41651C0E901150C21C560C0E904512F
:1048D0008561C561FEF7ADFA08B172B6FEE7FEF775
:1048E0009DFD3A4901F59670FEF705FE37492722EE
:1048F00001F59C70FFF717FF374C08222146374817
:10490000FFF70FFA3548102221461830FFF709FA51
:104910003248202221463030FFF703FA2F49603910
:1049200001F1A800FDF738F92C4814214830FDF7B3
:1049300068F92B4C2948FFF7ACF928481830FFF7E5
:10494000A8F926483030FFF7A4F92078042803D1CD
:1049500023480C3000F046F8FFF70CFA607918B9DC
:104960001F480930FFF7E0F9A0790128E2D1FDF7EF
:1049700061FA6169401A49F64041884207D31748F5
:10498000217A4830FDF716F9FDF754FA6061FDF71A
:1049900051FAA169401AB0F5FA7FCBD3607810B113
:1049A00001280CD106E00D480C38FFF797FE0120D6
:1049B000607004E009480C38FFF79EFE6570FDF753
:1049C00039FAA061B6E7000000540040380000202A
:1049D000A086010000380140000801407C01002051
:1049E0000000002070B50B4D0446E87910B90A4864
:1049F000FEF7D2F8E87901280AD18007406A0A2137
:104A0000B0FBF1F0A070BDE870400348FEF798B825
:104A100070BD000000000020D400002010B5002967
:104A20000AD00878002807D005487844FCF7A8FC8D
:104A3000002801D0002010BD0248784410BD0000BD
:104A40009A0100009201000010B500290AD00878F0
:104A5000002807D005487844FCF792FC002801D0D4
:104A6000002010BD0248784410BD00008A010000FB
:104A700082010000FCF78FB8FCF7C8B901020203FD
:104A80000405060708090A0B0C0D0E0F1010000094
:104A900000000000000001020304060708090000EE
:104AA00000000102030400000000000000000000FC
:104AB0003031323334353637383941424344454654
:104AC000403058003031323334353637383961624E
:104AD0006364656640307800040000080000000050
:104AE000000000020001000010303132333435364E
:104AF000373839616263646566787000303132330B
:104B00003435363738394142434445465850000021
:104B100002400000000000A000000000054000006E
:104B2000000000C8000000000C4000000000409C95
:104B300000000000194000000020BCBE0000000082
:104B400034400000BFC91B8E00000004B5400000C7
:104B5000504BCFD06607E2CF010000006C4100004F
:104B60003E8251AADFEEA73401000000D9420000C6
:104B7000DCB5A0E23A301F97FFFFFFFFB44500000D
:104B8000FD25A0C8E9A3C14FFFFFFFFFFF3F0000C5
:104B90000000008000000000FF3F000000000080D7
:104BA00000000000F04C0008000000203800000069
:104BB00028010008284D00083800002000080000E7
:104BC000440100081C00000043000000F8FFFFFF44
:104BD0000C0000000E0000000F0000002E0000007E
:104BE0001001000043000000F8FFFFFF00404040BC
:104BF00040404040404041414141414040404040B0
:104C0000404040404040404040404040400502025B
:104C1000020202020202020202020202022020201A
:104C20002020202020202002020202020202909076
:104C30009090909010101010101010101010101074
:104C400010101010101010100202020202028888C8
:104C500088888888080808080808080808080808D4
:104C600008080808080808080202020240000000BC
:104C70000000000000000000000000000000000034
:104C80000000000000000000000000000000000024
:104C90000000000000000000000000000000000014
:104CA0000000000000000000000000000000000004
:104CB00000000000000000000000000000000000F4
:104CC00000000000000000000000000000000000E4
:104CD00000000000000000000000000000000000D4
:104CE00000000000000000000000000000000000C4
:104CF00000010000000000000000000000000000B3
:104D00000F00000000000000000000000100000093
:104D100010000000000000000024F4007EFF0600E8
:084D20000000000000EF00009C
:04000005080000ED02
:00000001FF
